:100000000C9434000C9449000C9449000C94490061
:100010000C9449000C9449000C9449000C9449003C
:100020000C9449000C9449000C9449000C9449002C
:100030000C9449000C9449000C9449000C9449001C
:100040000C9449000C9449000C9449000C9449000C
:100050000C9449000C9449000C9449000C944900FC
:100060000C9449000C94490011241FBECFEFD8E036
:10007000DEBFCDBF11E0A0E0B1E0EAEDFCE002C0E0
:1000800005900D92AA32B107D9F70E94FB000C949B
:100090006B060C9400002098289A089580FF17C0E2
:1000A0005D9A81FF16C05C9A82FF15C05B9A83FF40
:1000B00014C05A9A5E9A85E08A95F1F700005E981E
:1000C0008FE891E00197F1F700C0000008955D9876
:1000D000E8CF5C98E9CF5B98EACF5A98EBCFCF9303
:1000E000C82F5F9882958F700E944E008C2F8F7062
:1000F0000E944E008FE39FE10197F1F700C00000DE
:10010000CF9108951F93CF93DF93EC0119911111B3
:1001100004C0DF91CF911F9108955F9A812F82953E
:100120008F700E944E00812F8F700E944E008FE3CF
:100130009FE10197F1F700C00000E8CFCF93DF9374
:10014000C82FD8E0209A2898C0FF11C080E28A9575
:10015000F1F70E944B008FEF90E00197F1F700C09C
:100160000000C695D15071F7DF91CF9108958FEEC1
:1001700090E00197F1F700C000000E944B0095E36A
:100180009A95F1F7EDCFCF93DF93D8E0C0E0C69515
:10019000209A289880E28A95F1F70E944B00E0E3CC
:1001A000EA95F1F783B1EBEDF0E03197F1F700C09C
:1001B000000080FDC068D15051F78C2FDF91CF91A6
:1001C0000895209A28988FE797E00197F1F700C0EB
:1001D00000000E944B00E7E1F1E03197F1F700C029
:1001E000000083B1E7E6F6E03197F1F700C00000C8
:1001F000809581700895CDB7DEB764970FB6F894F7
:10020000DEBF0FBECDBF219A2998579A569A559AAC
:10021000549A539A529A2FEF30E742E021503040DF
:100220004040E1F700C0000083E00E944E008FE1F3
:100230009EE40197F1F700C0000083E00E944E00A9
:100240008FE891E00197F1F700C0000083E00E9481
:100250004E0082E00E944E0088E20E946F008CE017
:100260000E946F0086E00E946F0081E00E946F0094
:100270008FE39FE10197F1F700C0000080E091E07B
:100280000E9482008FED782E9AE0892E912C2DE12C
:10029000C22E21E0D22E30E1632E9E012F5F3F4F10
:1002A00059010E94E100811126C0E12CF12C0EEFD2
:1002B00012EC80EC0E946F0020E030E048EC52EC41
:1002C000E98AFA8A0B8B1C8B69897A898B899C89CC
:1002D0000E94290287FF4CC08DE091E00E948200BD
:1002E000299A5FEF83ED90E3515080409040E1F711
:1002F00000C00000D6CF8CEC0E949E0084E40E94D7
:100300009E003FEF4EE954E2315040405040E1F74B
:1003100000C000000E94E100882339F28CEC0E94AA
:100320009E008EEB0E949E000E94C300182F0E9428
:10033000C300982F812F9C01990F440B550B298BDB
:100340003A8B4B8B5C8BCA01B9010E94660220E09C
:1003500030E040E85DE3698B7A8B8B8B9C8B6989FD
:100360007A898B899C890E94F3027B018C01A1CF41
:1003700020E030E040E251E4E98AFA8A0B8B1C8BE2
:1003800069897A898B899C890E94F302698B7A8BAF
:100390008B8B9C8B69897A898B899C890E942E0220
:1003A000698B7A8B8B8B9C8B1F927F9289899A8920
:1003B000B4010E9401029F938F937F936F93DF920A
:1003C000CF921F926F92BF92AF920E948803C50195
:1003D0000E9482000FB6F894DEBF0FBECDBF20E0B2
:1003E00030E040EE51E4E98AFA8A0B8B1C8B698974
:1003F0007A898B899C890E94EE0287FF71CF2998A8
:1004000070CF97FB072E16F4009407D077FD09D024
:100410000E94150207FC05D03EF4909581959F4FF0
:100420000895709561957F4F0895AA1BBB1B51E1FC
:1004300007C0AA1FBB1FA617B70710F0A61BB70B54
:10044000881F991F5A95A9F780959095BC01CD01F9
:1004500008950E94A10208F481E008950E943502E7
:100460006894B1110C94E80208950E94CD0288F0BE
:100470009F5798F0B92F9927B751B0F0E1F0660F68
:10048000771F881F991F1AF0BA95C9F714C0B130A9
:1004900091F00E94E702B1E008950C94E702672F03
:1004A000782F8827B85F39F0B93FCCF386957795D8
:1004B0006795B395D9F73EF49095809570956195C1
:1004C0007F4F8F4F9F4F0895E89409C097FB3EF4EC
:1004D00090958095709561957F4F8F4F9F4F992391
:1004E000A9F0F92F96E9BB279395F695879577950F
:1004F0006795B795F111F8CFFAF4BB0F11F460FFCF
:100500001BC06F5F7F4F8F4F9F4F16C0882311F026
:1005100096E911C0772321F09EE8872F762F05C03A
:10052000662371F096E8862F70E060E02AF09A95D5
:10053000660F771F881FDAF7880F9695879597F9CA
:100540000895990F0008550FAA0BE0E8FEEF161664
:100550001706E807F907C0F012161306E407F507B7
:1005600098F0621B730B840B950B39F40A2661F02B
:10057000232B242B252B21F408950A2609F4A140CE
:10058000A6958FEF811D811D089557FD9058440F4A
:10059000551F59F05F3F71F04795880F97FB991FE2
:1005A00061F09F3F79F0879508951216130614069F
:1005B000551FF2CF4695F1DF08C01616170618062C
:1005C000991FF1CF86957105610508940895E89407
:1005D000BB2766277727CB0197F908950E94A102D0
:1005E00008F48FEF08950E9406030C9477030E948D
:1005F000690338F00E94700320F0952311F00C94E9
:1006000060030C94660311240C94E8020E94C50256
:1006100070F3959FC1F3950F50E0551F629FF00155
:10062000729FBB27F00DB11D639FAA27F00DB11D6E
:10063000AA1F649F6627B00DA11D661F829F2227F7
:10064000B00DA11D621F739FB00DA11D621F839F7E
:10065000A00D611D221F749F3327A00D611D231F54
:10066000849F600D211D822F762F6A2F11249F57A2
:1006700050409AF0F1F088234AF0EE0FFF1FBB1FA5
:10068000661F771F881F91505040A9F79E3F510564
:1006900080F00C9460030C94E8025F3FE4F3983E12
:1006A000D4F3869577956795B795F795E7959F5F0E
:1006B000C1F7FE2B880F911D9695879597F90895A0
:1006C00097F99F6780E870E060E008959FEF80EC05
:1006D000089500240A9416161706180609060895A8
:1006E00000240A9412161306140605060895092E0E
:1006F0000394000C11F4882352F0BB0F40F4BF2B7D
:1007000011F460FF04C06F5F7F4F8F4F9F4F0895BC
:10071000AEE0B0E0EEE8F3E00C9442060D891E89ED
:100720008F89988D26E02C831A83098397FF02C056
:1007300080E090E801979E838D83AE01455E5F4F18
:10074000698D7A8DCE0101960E94B8034D815E813C
:1007500057FD0AC02F813885421753070CF49A01C0
:10076000020F131FF80110822E96E4E00C945E062F
:10077000AFE0B0E0EEEBF3E00C9434067C013B011B
:100780008A01DC0117961C921E92169713968C9183
:1007900081FFC3C19AE0292EFE0131964F01D70196
:1007A00013969C91F30193FD859193FF81913F01F5
:1007B000882309F448C1853239F493FD859193FF6C
:1007C00081913F01853229F4B70190E00E94A6058E
:1007D000E6CFB12C412C512CBFE1B51538F08B324E
:1007E00009F188F4803201F1833221F157FC3AC0DB
:1007F00020ED280F2A3040F556FE1FC0B29C200D78
:100800001124B22E06C08D3291F0803379F76894AE
:1008100050F8F30193FD859193FF81913F01811180
:10082000DBCF20C0689451F8689452F8F2CF6894F6
:1008300053F8EFCF689454F8ECCF429C200D11246C
:10084000422E689455F8E5CF8E3229F456FCFBC051
:10085000689456F8DECF8C3619F4689457F8D9CFDF
:100860008836B9F2982F9F7D95549330C0F0833627
:10087000A1F18337C1F1833509F05BC0D801CD9078
:10088000DD908D016B2D70E056FC02C06FEF7FEFA5
:10089000C6010E9490055C01689457F80AC00C5F7D
:1008A0001F4FEFE3E983AA24A394B12C6401E894D9
:1008B00057F853FC04C04A141B0409F018F5342CF3
:1008C000A114B10431F5332009F469CFB70180E2F6
:1008D00090E00E94A6053A94F6CFD8018C918983C6
:1008E0000E5F1F4FE0CFF801C190D1908F016B2DAB
:1008F00070E056FC02C06FEF7FEFC6010E949B05BF
:100900005C01D5CFB70180E290E00E94A6054A9431
:10091000D2CFF60157FC859157FE81916F01B70147
:1009200090E00E94A60531103A94B1E0AB1AB108EC
:10093000C7CF843619F0893609F074C0F80157FE24
:100940006AC061917191819191918F01E52DEF764E
:10095000DE2E97FF09C090958095709561957F4F29
:100960008F4F9F4F6894D7F82AE030E0A4010E948F
:10097000D605C82EC818AC2C5D2CD6FE0CC0E89449
:1009800050F8CB1440F4D4FE05C0D2FC03C05D2D5A
:100990005E7E552EAB2C54FE98C0FE01EC0DF11D71
:1009A0008081803309F08AC0652D697E562E752DB1
:1009B0007870372E53FC98C050FE92C0BC2CA41403
:1009C00018F44C0CB42CBA1854FE94C0B70180E350
:1009D00090E00E94A60552FE09C088E790E051FE13
:1009E00002C088E590E0B7010E94A605CB1408F488
:1009F0008DC0CA94D12C8FEFC81AD80AC80CD91C44
:100A0000D6018E916D01B70190E00E94A6058C146D
:100A10009D04B1F758CF61917191072E000C880B9E
:100A2000990B93CFD52CE894D4F82AE030E08537A1
:100A300039F1F52DF97FDF2E8037A9F058F488358C
:100A4000A9F08F36D9F0F701868197812F96E2E1E0
:100A50000C9450068837B9F7D4FE02C06894D2F8D7
:100A600020E130E00DC06894D4F8F6CF54FE03C006
:100A70002F2F2660D22E20E132E002C028E030E0A5
:100A8000F801D7FE15C041915191619171914C8748
:100A90005D876E877F878F01A4016C857D858E853C
:100AA0009F850E94D605C82EC818E894D7F863CF52
:100AB00081919191AC0170E060E0E9CF52FC02C0FD
:100AC000A39475CFA394A39472CF852D867809F44F
:100AD0006ECFF6CFB70180E290E00E94A605A39406
:100AE000A414C0F3312C70CF342C3A18A41408F499
:100AF0006BCFF8CF852D867809F478CF8BE251FE45
:100B000080E257FC8DE2B70190E06ECFB70180E341
:100B100090E00E94A605BA9469CF8FEF9FEF96CF21
:100B2000FC010590615070400110D8F780959095B8
:100B30008E0F9F1F0895FC016150704001900110BD
:100B4000D8F7809590958E0F9F1F08950F931F9350
:100B5000CF93DF93182F092FEB018B8181FD09C003
:100B60001FEF0FEF812F902FDF91CF911F910F91EA
:100B7000089582FF14C02E813F818C819D812817AA
:100B800039073CF4E881F981CF0101969983888384
:100B900010838E819F8101969F838E83E3CFE885AA
:100BA000F985812F0995892BA1F3DACFFA01AA27BC
:100BB000283051F1203181F1E8946F936E7F6E5FA0
:100BC0007F4F8F4F9F4FAF4FB1E03ED0B4E03CD04E
:100BD000670F781F891F9A1FA11D680F791F8A1F31
:100BE000911DA11D6A0F711D811D911DA11D20D098
:100BF00009F468943F912AE0269F11243019305D52
:100C00003193DEF6CF010895462F4770405D419342
:100C1000B3E00FD0C9F7F6CF462F4F70405D4A338F
:100C200018F0495D31FD4052419302D0A9F7EACF57
:100C3000B4E0A6959795879577956795BA95C9F786
:100C400000976105710508959B01AC010A2E069479
:100C50005795479537952795BA95C9F7620F731F32
:100C6000841F951FA01D08952F923F924F925F926F
:100C70006F927F928F929F92AF92BF92CF92DF92AC
:100C8000EF92FF920F931F93CF93DF93CDB7DEB711
:100C9000CA1BDB0B0FB6F894DEBF0FBECDBF0994A5
:100CA0002A88398848885F846E847D848C849B84FC
:100CB000AA84B984C884DF80EE80FD800C811B810A
:100CC000AA81B981CE0FD11D0FB6F894DEBF0FBE39
:0A0CD000CDBFED010895F894FFCFA9
:100CDA0054656D70657261747572653A004E6F2065
:100CEA0073656E736F722020202020200025642EE9
:0A0CFA00256425634320202000003C
:00000001FF
